:020000040800F2
:1000000000400020695500086D5000086F5000083E
:1000100000000000000000000000000000000000E0
:100020000000000000000000000000007150000807
:100030000000000000000000735000087550000828
:10004000B955000800000000B9550008B95500086E
:10005000B9550008B95500087D50000887500008C0
:1000600000000000B9550008A1500008B95500086B
:10007000B9550008B9550008B9550008000000003E
:10008000B9550008B9500008B9550008B95500081D
:10009000B9550008B9550008B9550008C9500008FD
:1000A000ED500008B9550008B95500081151000875
:1000B000B9550008B955000800000000B9550008FE
:1000C00010B5064C2378002B07D1054B002B02D02E
:1000D000044800E000BF0123237010BD1C03002072
:1000E00000000000405E0008044B10B5002B03D058
:1000F0000349044800E000BF10BDC04600000000F6
:1001000020030020405E0008002243088B4274D385
:1001100003098B425FD3030A8B4244D3030B8B4208
:1001200028D3030C8B420DD3FF22090212BA030C11
:100130008B4202D31212090265D0030B8B4219D3F2
:1001400000E0090AC30B8B4201D3CB03C01A524112
:10015000830B8B4201D38B03C01A5241430B8B425A
:1001600001D34B03C01A5241030B8B4201D30B0343
:10017000C01A5241C30A8B4201D3CB02C01A52416A
:10018000830A8B4201D38B02C01A5241430A8B422D
:1001900001D34B02C01A5241030A8B4201D30B0216
:1001A000C01A5241CDD2C3098B4201D3CB01C01A30
:1001B000524183098B4201D38B01C01A524143093A
:1001C0008B4201D34B01C01A524103098B4201D328
:1001D0000B01C01A5241C3088B4201D3CB00C01A95
:1001E000524183088B4201D38B00C01A524143080D
:1001F0008B4201D34B00C01A5241411A00D2014632
:10020000524110467047FFE701B5002000F0F0F8BA
:1002100002BDC0460029F7D076E7704703460B437E
:100220007FD4002243088B4274D303098B425FD3EF
:10023000030A8B4244D3030B8B4228D3030C8B421B
:100240000DD3FF22090212BA030C8B4202D3121201
:10025000090265D0030B8B4219D300E0090AC30BD6
:100260008B4201D3CB03C01A5241830B8B4201D383
:100270008B03C01A5241430B8B4201D34B03C01A6C
:100280005241030B8B4201D30B03C01A5241C30AE4
:100290008B4201D3CB02C01A5241830A8B4201D355
:1002A0008B02C01A5241430A8B4201D34B02C01A3F
:1002B0005241030A8B4201D30B02C01A5241CDD2E4
:1002C000C3098B4201D3CB01C01A524183098B422F
:1002D00001D38B01C01A524143098B4201D34B0118
:1002E000C01A524103098B4201D30B01C01A52417B
:1002F000C3088B4201D3CB00C01A524183088B4202
:1003000001D38B00C01A524143088B4201D34B00EA
:10031000C01A5241411A00D201465241104670475C
:100320005DE0CA0F00D04942031000D34042534061
:1003300000229C4603098B422DD3030A8B4212D321
:10034000FC22890112BA030A8B420CD38901921153
:100350008B4208D3890192118B4204D389013AD090
:10036000921100E08909C3098B4201D3CB01C01A65
:10037000524183098B4201D38B01C01A5241430978
:100380008B4201D34B01C01A524103098B4201D366
:100390000B01C01A5241C3088B4201D3CB00C01AD3
:1003A000524183088B4201D38B00C01A5241D9D2EB
:1003B00043088B4201D34B00C01A5241411A00D26C
:1003C0000146634652415B10104601D34042002B68
:1003D00000D54942704763465B1000D3404201B5E7
:1003E000002000F005F802BD0029F8D016E770479C
:1003F0007047C0460023C25C0133002AFBD1581E5F
:10040000704710B500F048FE10BD10B54A088A21AB
:1004100001F0B8FD10BD0000152906D88B00044A74
:10042000D3589F4601740020704708204042FBE7E4
:10043000585E0008037C0B700020704710B501F077
:100440000BF810BD10B501F08FF810BD10B500F01D
:10045000E1FF10BDF0B585B006000F00019202ABC0
:10046000DD1D00232B702A00012101F0C5FD0400D1
:100470002B78002832D1019A012A05D0042F40D8C8
:10048000BA0028498A589746042F36D8BF00264913
:10049000CA59974610251D4321E028251D431EE01B
:1004A00004251D431BE040251D4318E080256D42B7
:1004B0001D43EDB213E010221D0095430FE02822EA
:1004C0001D0095430BE004221D00954307E04022E8
:1004D0001D00954303E07F251D4000E01D009D4267
:1004E00008D0002C11D0002C02D198235B00F554C9
:1004F000002C11D0200005B0F0BD1D000424644282
:10050000EDE71D0004246442E9E72A0001213000E0
:1005100001F038FD0400E6E771693000FFF78EFF57
:10052000E8E7C046B05E0008C45E0008002018700E
:1005300004291FD88900114841588F461211012102
:100540000A401A7000207047D21001210A401A7028
:100550000020F8E7921001210A401A700020F2E70B
:10056000921101210A401A700020ECE7D2091A709A
:100570000020E8E704204042E5E7C046D85E0008D6
:1005800030B583B004000D006B46DA1D00231370F4
:10059000012101F031FD002809D000280FD00028EA
:1005A00015D000281BD0002821D003B030BD6B46E9
:1005B000DA792B0000212000FFF7B8FFEDE76B464A
:1005C000DA79AB1C01212000FFF7B0FFE7E76B46AB
:1005D000DA796B1C02212000FFF7A8FFE1E76B46E8
:1005E000DA79EB1C03212000FFF7A0FFDBE76B4665
:1005F000DA792B1D04212000FFF798FFD5E770B5AD
:1006000082B005000E006B469A1DF82101F000FD36
:10061000041E0ED0002C09D16B46D988002903D0C6
:100620000098FFF771FD30603368AB61200002B0C5
:1006300070BD6A460421280001F0F6FC0400E9E7D9
:10064000037F0B700020704730B583B004000D00AD
:100650006B469A1D202101F0DBFC002809D16B4676
:1006600006331B88002B06D0DB002B60236201239E
:10067000237703B030BD236A2B6000232377F8E78C
:10068000F8B505000C001600052940D8002A0CD04A
:100690000B000C339B00C3185A6800230127052C5C
:1006A00038D8A1001D4841588F4617000123002269
:1006B000F5E72823EF54002007E0520A92B24421C4
:1006C000280001F06BFC002805D1002E1AD02C194F
:1006D000283401232370F8BD2A23EF540020F4E7C7
:1006E0002B23EF540020F0E75B00FE22602128005E
:1006F00001F060FCE7E71B01EF226021280001F018
:1007000059FCE0E72C19283400232370E3E7042088
:100710004042E0E704204042DDE7C046EC5E0008CE
:10072000052905D840182830037813700020704739
:100730000023137004204042F9E7000070B5060062
:100740000C001500431828331B78002B05D0052911
:1007500025D88B00134AD3589F460B000C339B00BF
:10076000C3185A60002070BD4563002006E06A0A85
:1007700092B2442101F012FC0028F4D10C34A40000
:1007800034196560EFE7C5630020F7E705640020D2
:10079000F4E76A0A92B2642101F000FCECE704205D
:1007A0004042E0E7045F0008F0B583B005000C00AC
:1007B000170005292DD88B00264AD3589F46466B33
:1007C00000230020002802D1012B2AD03E6003B074
:1007D000F0BD6B469A1D442101F01AFC00281CD183
:1007E0006B46DE8876020123ECE7C66B002300200F
:1007F000E8E7066C00230020E4E76B469A1D6421BD
:1008000001F006FC00280AD16B46DE887602002340
:10081000D8E7002304204042D4E70123D2E7002395
:10082000D0E7002E0AD123000C339B00EB185B6845
:100830003B602C19283400232370C8E73E60230056
:100840000C339B00EB185E602C19283401232370B5
:10085000BDE7C0461C5F000870B588B005293DD8CB
:100860003FD88900204B5B589F46A0235B00C358AC
:100870001360002008B070BD01AB1900503070C883
:1008800070C170C870C1049B13600020F2E7A423FC
:100890005B00C35813600020ECE701AB1900503037
:1008A00070C870C170C870C1049B13600020E1E77C
:1008B00001AB1900503070C870C170C870C1049B82
:1008C00013600020D6E701AB1900503070C870C12A
:1008D00070C870C1049B13600020CBE70420404225
:1008E000C8E704204042C5E7345F000830B583B054
:1008F00004000D006B46DA1D012101F07DFB031E93
:100900000AD16A460732127898214900625452B2DD
:10091000002A08DB00222A70002B02D12A784C33EF
:10092000E25403B030BD01222A70F5E7F0B583B080
:1009300001900D00FFF77EFD041E10D0002C01D1A8
:1009400000232B73002C11D0002C16D0002C1BD0B0
:10095000002C37D0002C3CD0200003B0F0BD290083
:1009600008310198FFF74BFE0400E7E7290010313A
:100970000198FFF769FE0400E6E7290014310198A9
:10098000FFF73FFD0400E1E70027052FE0DC002C26
:10099000DED1BEB23A0008329200AA180432310009
:1009A0000198FFF701FF044364B2002CD0D13A0054
:1009B0001832AA1831000198FFF7B2FE044364B25E
:1009C0000137E2E729003C310198FFF78FFF04006F
:1009D000C0E7291D0198FFF735FD0400BCE70000C2
:1009E00070B592B005000022882101F0CBFA0023F7
:1009F000F022AB546232FA218900A9520232C82196
:100A00004900A95204326849A950843A6749A9505B
:100A10002B6202A92800FFF789FF041E08D102A952
:100A200000230B704B7028001030402204F0EAFDC8
:100A30009A235B006422EA520233E1229200EA52D6
:100A40000233913AFF3AEA520433A0221201EA52E9
:100A500014330122EA548021280001F093FA044360
:100A600064B20122FF21280001F08CFA044364B231
:100A700000220021280001F085FA044364B26B468D
:100A8000DE1D32009121280001F0B6FA044364B261
:100A900032789D235B00EA5401220021280001F0F6
:100AA00071FA044364B20022FF21280001F06AFABF
:100AB000044364B200228021280001F063FA044359
:100AC00064B20026052E0ADC002C08D1B1B2012246
:100AD0002800FFF7D5FD044364B20136F2E7002C8D
:100AE00018D0002C1DD0002C22D0002C27D0002C98
:100AF0002CD0002C32D0002C38D0002C3ED0002C32
:100B000043D0002C03D11623FF330022EA542000E7
:100B100012B070BD002202212800FFF7B1FD0400D1
:100B2000DFE7002203212800FFF7AAFD0400DAE72F
:100B3000002204212800FFF7A3FD0400D5E70022CE
:100B400005212800FFF79CFD0400D0E79022520306
:100B500000212800FFF7F2FD0400CAE78022D2013D
:100B600001212800FFF7EAFD0400C4E78C2292036C
:100B700002212800FFF7E2FD0400BEE70022032166
:100B80002800FFF7DBFD0400B9E798235B00FF2294
:100B9000EA540121280001F0F5F9040099235B00D3
:100BA0000122EA54ADE7C046856B0100A47009003C
:100BB000F0B5D6464F4680B591B004000D000C2329
:100BC0000CAA142101F0CBF903908446031E61D1D5
:100BD000A87528600CAA917A0902D07A091889B2FE
:100BE0006B6097793F02D379FF18BFB27F02EF6045
:100BF000137A1B02507A1B189BB25B022B6193780D
:100C00001B02D0781B189EB2AE8213789A46A92395
:100C10005B00E05A3223FF33E35C9946FA239B00E2
:100C2000984217D04843F530FF301900FFF7F6FA25
:100C300081B2236A227F002A0CD01904090C714367
:100C400009128F4251D00004000C7843791AFFF743
:100C50005BFA81B24B46002B4ED08B082B81C9B278
:100C60008901E975372302AA9446634401930095EC
:100C700033003A005146200000F060FF039B03431D
:100C80005BB29C46002B05D1373302AA91464B44F8
:100C90001B782B766346002B21D105AA1100230077
:100CA0005033C1CBC1C1C1CBC1C11B680B602B8903
:100CB0001381EB7DD3756B8953816B680693EB6869
:100CC00008932B690993AB8A93822B7E1376503459
:100CD0000BCA0BC411000DC90DC40B68236060461C
:100CE00011B00CBC91469A46F0BD4B46002B01D08A
:100CF0000349AFE70349ADE729810023EB75B1E76D
:100D0000B8220000E08A0000F0B583B004001700AC
:100D10001E006B469D1D2A000E2101F079F92B88DB
:100D20005B040A4A13403B60002801D003B0F0BDC9
:100D30006B469D1D2A000C21200001F069F92B88CB
:100D40005B04024A13403360F0E7C0460000FE1F18
:100D500070B582B004000D00DA23C35C013BDBB246
:100D6000022B02D9002002B070BD6B4601AA0121FE
:100D7000FFF7CAFF0600FF231B04019A9A4202D81C
:100D8000009A9A42EFD90028EDD1002D1CD10422FF
:100D9000FF21200001F0F6F8064375B20022702111
:100DA000200001F0EFF805436DB20022FF21200082
:100DB00001F0E8F805436DB200228021200001F027
:100DC000E1F8284340B2CEE70249200000F04EFC93
:100DD000C9E7C0460000002030B583B004006B4670
:100DE000DD1D2900FFF726FB01228021200001F0F4
:100DF000C9F80122FF21200001F0C4F800220021DF
:100E0000200001F0BFF89D235B00E25C91212000EF
:100E100001F0B8F801220021200001F0B3F800220F
:100E2000FF21200001F0AEF800228021200001F017
:100E3000A9F82B78012B2BD0002B05D0032B3AD00F
:100E40000820404203B030BD01220021200001F003
:100E500099F86B4601229A710028F3D10025002DE4
:100E600005D06B469A1D0021200001F0C5F8013520
:100E70006B4606331B78DB0704D5002802D1174BDD
:100E80009D42ECD9154B9D42DCD907204042D9E761
:100E900000280BD002220021200001F073F8002866
:100EA000D0D199235B000422E254CBE7012120003A
:100EB000FFF74EFFEEE700280BD0042200212000B0
:100EC00001F060F80028BDD199235B000422E254B0
:100ED000B8E701212000FFF73BFFEEE7CF07000056
:100EE000F0B583B00500002601220B21280001F097
:100EF00049F8040000220B21280001F043F80443C4
:100F000064B26B46DF1D3A001321280001F074F82B
:100F1000204340B20136F6B23B785B0703D0022E85
:100F200001D80028E0D0022E01D803B0F0BD0C207B
:100F30004042FAE7F8B504000D001E0006AB1F782A
:100F4000002900D0A3E0142A08D0152A10D0042EBE
:100F500000D994E0B3004F4AD3589F46002F05D0E4
:100F600001228421200001F00DF887E0043AF8E71F
:100F7000143AFF2101F006F80500002200212000AC
:100F800001F000F805436DB20022FF21200000F0BF
:100F9000F9FF05436DB201228021200000F0F2FF2D
:100FA00005436DB202228521200000F0EBFF0543CE
:100FB0006DB20422FF21200000F0E4FF05436DB272
:100FC0000022CD21200000F0DDFF05436DB211228B
:100FD000CC21200000F0D6FF05436DB20722FF218F
:100FE000200000F0CFFF05436DB20022BE2120009B
:100FF00000F0C8FF05436DB20622FF21200000F07B
:10100000C1FF05436DB20922CC21200000F0BAFFD8
:1010100005436DB20022FF21200000F0B3FF05431D
:101020006DB20122FF21200000F0ACFF05436DB23C
:1010300000220021200000F0A5FF284340B21DE05F
:10104000042206E0022204E0012202E00A0000E09D
:1010500003220A21200000F095FF002808D1002F6C
:1010600000D010252B00EF228421200000F0A2FFE9
:10107000002801D1DA23E654002803D0F8BD0B2064
:101080004042EAE700212000FFF72AFFF6E70A20A6
:101090004042F3E74C5F000810B582B00C006B468D
:1010A0009A1D282100F0B4FF00280AD16B460633B0
:1010B0001B881B051B0D074A934204D8FA22534391
:1010C000236002B010BD044A94466344FA2253439D
:1010D0002360F6E7FF07000000F0FFFF0130C0B219
:1010E0004000C0B2704702008023DB0500E09B088F
:1010F0009342FCD8002001E040089B08002B06D05A
:10110000C1189142F8D8521A4008C018F5E7704744
:10111000CB0059180B02014858437047770600006E
:10112000002810D0421E002302E0520801339BB277
:10113000FF2110008843F8D11B0298B2FF231A4008
:10114000801880B270470020FCE70300FF201840A1
:101150001B0A98400130704770B50E001100FFF770
:10116000D7FFF530FF300400FA218900FEF7CCFFED
:1011700005007101891B89008919CE00FA21C90077
:101180002000FEF7C1FF30182900FEF7BDFF70BD3B
:1011900010B50C001100FFF7BBFFF530FF30FA214E
:1011A0008900FEF7B1FF6043F530FF30FA21890076
:1011B000FEF7AAFF10BDF0B5C64600B584B0050025
:1011C000160000230E226A44137003AA138002291A
:1011D0000BD9032925D0042947D0002000243060F2
:1011E000200004B004BC9046F0BD0F226A440021E8
:1011F000FFF72CF9041E0CD00E236B441878FFF770
:10120000A4FF81B20F236B441A782800FFF7C0FFB8
:10121000E5E70E226A444621280000F0EDFE0400B6
:10122000EAE70F226A440021FFF710F9041E01D0FB
:101230000020D4E70F226A4400212800FFF706F9B6
:10124000041E0BD003AB1888FFF77FFF81B20F237A
:101250006B441A782800FFF79BFFC0E703AA5121CF
:10126000280000F0D5FE0400ECE701AC2100FFF7F8
:1012700087F9E378002B17D00F226A440021280059
:10128000FFF7E4F8041E03D00027002C14D10CE073
:1012900003AF3A005121280000F0BAFE040038885C
:1012A000FFF753FF87B2F0E700270F226A440121BE
:1012B0002800FFF7CBF80400002C09D00021C91B3F
:1012C00089B20F236B441A782800FFF761FF86E785
:1012D0000A236B4498461A007121280000F098FEFA
:1012E000040043461888FFF730FF81B2E7E7F0B506
:1012F00085B005001600022917D9032938D0042922
:1013000000D084E001AC2100FFF73AF9E378002B2C
:101310005CD00F226A4400212800FFF797F8041ED2
:1013200048D00027002C59D151E00F226A440021F7
:10133000FFF78CF8041E10D10F236B441A7831008C
:101340002800FFF709FF82B280235B009A420DD884
:10135000C0B20138C7B2D823EF52002C40D13A00B6
:101360004621280000F00EFE040039E0FF27F2E7D6
:101370000F276F443A000021FFF768F804003A781D
:1013800031002800FFF7E8FE0004000CFFF7C8FE5C
:1013900003AB1880D823E852002C04D0002C1FD1B6
:1013A000E423EE501CE002005121280000F0F6FD7D
:1013B0000400F3E703AF3A005121280000F028FEB3
:1013C00004003888FFF7C1FE87B2ABE700270F2281
:1013D0006A4401212800FFF739F80400002C02D0EC
:1013E000200005B0F0BD0F236B441A7831002800AF
:1013F000FFF7B2FE3818FFF793FE020071212800B4
:1014000000F0CCFD041EEBD1DC23EE50E8E7042411
:101410006442E5E730B583B01500002904D0012906
:1014200012D0042464420CE06B46DA1D502100F017
:10143000E3FD0400002C04D16B46D879FFF74EFE83
:101440002870200003B030BD6B46DA1D702100F01B
:10145000D3FD0400EEE7000070B584B004000D0079
:10146000FA23DB000193002300933A4B994261D9A0
:10147000394BCE1802A9FFF783F8002829D102AB17
:101480001B78002B07D102AB5B78002B03D102AB9A
:101490009B78002B1DD001AA02212000FFF78BFEB4
:1014A000002822D102AB1B78002B06D0019B2B4ACF
:1014B000944663449E4240D9F61A02AB9B78002BB7
:1014C00015D0019B264A944663445B009E4237D95F
:1014D000F61A002809D102ABDB78002B14D10028C2
:1014E00003D102AB1B79002B1CD104B070BD02AB41
:1014F0005B78002BEDD0019BA522920094466344BB
:101500009E4220D9F61AE4E76A4603212000FFF73D
:1015100052FE009BA5229200944663449E4215D938
:10152000F61ADCE70F4BF21804212000FFF7DFFE6C
:101530006561DAE704204042D7E704204042D4E75F
:1015400004204042D1E704204042CEE7042040423C
:10155000CBE7C0461F4E0000CAF4FFFF4E0200005A
:10156000B2020000DAFDFFFF30B587B005000C00C5
:10157000FA23DB00029300230193384B0B6004A98C
:10158000FEF7FEFF00283BD104AB1B78002B07D1F0
:1015900004AB5B78002B03D104AB9B78002B1FD0EE
:1015A00002AA02212800FFF706FE002818D104AB8A
:1015B0001B78002B07D0029B294A9446634422687B
:1015C00094466344236004AB9B78002B1AD0029BA3
:1015D000244A944663445B00226894466344236033
:1015E000002803D104ABDB78002B19D1002803D1EC
:1015F00004AB1B79002B22D1002801D123686B6139
:1016000007B030BD04AB5B78002BE9D0029BA5226C
:101610009200944663442268944663442360DFE763
:1016200001AA03212800FFF7C6FD019BA522920015
:10163000944663442268944663442360D6E703AA31
:1016400004212800FFF7B7FD039B074A9446634433
:101650002268944663442360CEE7C046360B000000
:101660004E020000B202000026020000F0B583B076
:1016700005000E000024002044E0B35CA21C012BF6
:1016800013D0002B07D0022B19D0032B21D014002C
:101690000420404236E0B35CE21C1B02B25C04341E
:1016A0009B189A225200AB522CE0B35CE21C1B0246
:1016B000B25C04349B189B225200AB5222E0B35C14
:1016C000E21C1B02B25C04349B189C225200AB52F9
:1016D00018E0B35CE21C1B02B25C04349B189E222F
:1016E0005200AB520EE0B15C0234002204E0375DE0
:1016F00001A88754013401329342F8DC01AA280082
:1017000000F026FC335D002B0AD0002808D1621CB3
:10171000FF2BB2D0042BE6D9140004204042F1E79D
:1017200003B0F0BD70B582B006000D0014000023B8
:1017300013606B46D91DFEF783FF00280AD16B4664
:1017400007331B78002B05D0336AAA8A53438033B2
:101750001B0A236002B070BD10B582B01400CB68C4
:10176000136001AAFFF7DEFF002804D12368019A65
:1017700094466344236002B010BD0000F8B5170022
:101780001C00AA235B00C35AAC22520086585E4359
:101790008036360A5E43002F0CD089027808401844
:1017A0003900FEF7B1FC47003818404380231B0284
:1017B000C7183F0C069B6343802212029446634481
:1017C0001C0C6443079B6344180C03300621FEF78E
:1017D0009BFCC300181A254B984244D8079BD81C81
:1017E0000621FEF791FCC3001B1A802212029446C8
:1017F00063441B0C5B431B19089A5008C018110066
:10180000FEF782FC80037F30FE21FEF77DFC7843EB
:10181000F530FF30FA218900FEF776FC0001F53043
:10182000FF300400FA218900FEF76EFC070030004B
:1018300020308009FFF757FC0500002F09D0FA215E
:10184000C9002000FEF760FC80193900FEF75CFC3F
:1018500007003800FFF747FC099B1D60854200D94F
:1018600018600020F8BD024BC5E7C046FFFF00002E
:101870000000F0FFF0B5DE4657464E464546E0B55F
:101880008FB005000F0006920793036A0D930A6953
:1018900053019B1A9B009B18DB000993CB680893AC
:1018A0000CAAFFF759FF0DAA39002800FFF73AFFED
:1018B00005900C9C63011B1B9B001B19DE00802301
:1018C0001B029C466644330C9A460D9A53019B1AA0
:1018D0009B009B18D8008046C8239B03984200D9E0
:1018E0009846059B002B33D1DC33E9580A91043329
:1018F000EB5C9B461A002800FFF72EFC8146E42390
:10190000E9580B910433EA5C2800FFF725FC5B469D
:10191000082B00D1D5E0032348445843C002F530DA
:10192000FF30FA218900FEF7EFFB03007B485843A4
:10193000F530FF30FA218900FEF7E6FB834680345C
:10194000240A0300634380331B0A994624020C9443
:10195000059B002B00D0D9E05346002B00D1B2E00C
:101960004B46002B01D101339946099B180C00040A
:101970005146FEF7C9FB6A4B984200D91800830014
:1019800018180301181AC30005934B465B004B441B
:101990009800FFF7A8FB44003B89624A5A439246ED
:1019A000360C360443465800301AF530FF30FA2121
:1019B0008900FEF7A9FB80463000F530FF30FA21A0
:1019C0008900FEF7A1FB010043461802FEF79CFBCD
:1019D000C317C6185E4036023B7E002B7DD15249AC
:1019E0005046FEF791FB80235B029B1B4343802202
:1019F0001202944663441B0C8022520294466344B4
:101A00005B085B439E0BB3009B199A009B1858011F
:101A100080231B029C466044000C4043059B6344AA
:101A20001B0C5B43C018FFF75EFB000432306421DF
:101A3000FEF76AFB2100FEF767FB03003B485843B3
:101A40003B4B9C4660443B49FEF75EFB8246F023DD
:101A50001B02984200D99A460A9B0B9A944663440B
:101A60001C00F534FF34FA2189002000FEF74CFBFE
:101A70000700FA21C9002000FEF746FBC8235B03DC
:101A80009C4660443900FEF73FFBFFF72CFB000249
:101A9000F530FF30FA218900FEF736FB53465B43F1
:101AA00040431818FFF71FFB43011B1A9B0018182F
:101AB000C3004A46002A13D01F4A934211D91E4B35
:101AC0000FE0022328E71C4B069A1360A022520065
:101AD000AB500023079A136018E08026760292E745
:101AE000154B069A1360A0225200AB50079B03933C
:101AF0005B460293059B0193C8239B000093330030
:101B0000089A0C992800FFF739FE059005980FB048
:101B10003CBC90469946A246AB46F0BD7706000015
:101B2000666666009A9906005C120000B50B00001C
:101B30008813000010270000AE878F02F0B5DE4644
:101B4000574680B58BB004000192009300231F22FA
:101B500002A88446624413701E22624413701D2240
:101B60006244137009AA13700A226244138003931B
:101B7000C9080F250D4011D0052D50D0072D51D08B
:101B80000C2D52D00D2D53D00E2D54D00F2D02D030
:101B900000239B4604E001339B4601E001239B4662
:101BA0001F2602AB9C466644320000212000FEF74F
:101BB000B7FD33789A46002B03D000283ED000238F
:101BC0009A4600285ED01D2302AA944663441F78DB
:101BD000002F02D000285ED00027002800D18EE020
:101BE00009AB1E78002E00D192E0002800D08EE0D4
:101BF0000099002900D188E0019B1802FEF784FAC1
:101C0000060005AA03212000FEF7CEFD059B002B50
:101C100000D18AE0B34200D989E0002678E00123B0
:101C20009B46BDE701239B46BAE701239B46B7E7E6
:101C300001239B46B4E701239B46B1E703AB08AA07
:101C400012992000FFF716FE002802D1039B129A7A
:101C50005381002802D000239A46B2E707AA002148
:101C60002000FEF7A1FD079B002B05D0089A9342A8
:101C700005D300239A46A4E700239A46A1E701234F
:101C80009A469EE71D2202AB9C4662440221200038
:101C9000FEF746FD97E706AA02212000FEF784FD25
:101CA000002813D0002817D000281ED00A2302AA2B
:101CB000944663441B885B02A4225200A350069AF8
:101CC000002A18D09A4218D3002786E70122FF2164
:101CD000200000F057F9E5E70A2202AB9C46624477
:101CE000B621200000F094F9DEE70022FF21200059
:101CF00000F048F9DAE700276FE701276DE709AA46
:101D000003212000FEF70CFD6AE7002679E7002694
:101D1000002811D15B46012B0BD06B1EDBB2022BCE
:101D200031D80523139A137006E00026F0E7012648
:101D3000EEE7FE33139A1370139B1B78002B01D12F
:101D4000129A53811E2202AB9C466244012120005C
:101D5000FEF7E6FC00284ED11F2302AA94466344F6
:101D60001B78002B01D101339A462E235246E254B0
:101D7000042D2CD0103B02AA944663441B78002B00
:101D80003ED1012224E0062D12D0092D10D0082DBD
:101D900012D00A2D10D0012F0ED0042D10D0012EFC
:101DA0000ED05346012B0FD00023139A1370C3E7B4
:101DB0000423139A1370BFE70323139A1370BBE72E
:101DC0000223139A1370B7E7139A1370B4E7012232
:101DD0002F23E254123B02AA944663441B78002B43
:101DE00000D101273023E75409AB1B78002B00D129
:101DF00001263123E6540BB00CBC92469B46F0BD45
:101E00000022E5E710B584B014008AB281B26420E4
:101E100002909BB2019300940123044800F070FEED
:101E2000002800D0012004B010BDC046F8080020F2
:101E300000B587B017236B441A708AB281B2642050
:101E400002906338019000930123044800F074FD70
:101E5000002800D0012007B000BDC046F8080020CF
:101E600010B586B005AB140A1C705A708AB281B2E4
:101E7000642002906238019000930123034800F02F
:101E80005BFD002800D0012006B010BDF80800203E
:101E900000B585B013008AB281B264200290633825
:101EA000019000930123044800F02AFE002800D08E
:101EB000012005B000BDC046F808002010B586B06E
:101EC00014008AB281B264230293623B019305AB92
:101ED00000930123074800F013FE002808D105A94C
:101EE0000A8812020223CB5E1343238006B010BD82
:101EF0000120FBE7F808002010B588B014008AB272
:101F000081B264230293623B019306AB00930123E9
:101F10000E4800F0F5FD002815D1069B1B021B0E94
:101F20001B06079A1204FF2109040A401343089A6A
:101F300005921206120C13430999FF220A4013431B
:101F4000236008B010BD0120FBE7C046F808002060
:101F50003F2B01D80020704704204042FBE770B5BA
:101F60003F2B09D80024AE256D00405DFFF74AFFE6
:101F7000002804D1200070BD04246442F3E7142437
:101F80006442F7E710B5AE235B00C05CFFF750FF7B
:101F9000002800D110BD14204042FBE710B5AE234D
:101FA0005B00C05CFFF75CFF002800D110BD14206F
:101FB0004042FBE7F0B583B00E0017001C00AE23D3
:101FC0005B00C55C6B46DA1D2800FFF761FF002847
:101FD0000CD16B46DA793A402243DA71310028009D
:101FE000FFF726FF002804D103B0F0BD14204042C3
:101FF000FAE714204042F7E710B5AE235B00C05C5F
:10200000FFF746FF002800D110BD14204042FBE737
:1020100010B5AE235B00C05CFFF750FF002800D175
:1020200010BD14204042FBE710B5AE235B00C05C3E
:10203000FFF762FF002800D110BD14204042FBE7EB
:1020400010B5040001F05CFCFA218900FEF75CF891
:1020500000F072F8012000222100404200F032F826
:10206000002010BD10B5064A136810210B43136001
:102070000020FFF7E5FF02F0D1FE002010BDC046B2
:1020800000200240024A1368013313607047C046C3
:102090006C030020014B18687047C0466C03002099
:1020A00030B583B00190FFF7F5FF0500019C631C7C
:1020B00000D00134FFF7EEFF401BA042FAD303B07B
:1020C00030BD000070B5002811DB8408134DC0340A
:1020D000A400625903231840C000FC331E00864050
:1020E000B24389010B4083401343635170BDC0B2BA
:1020F0000F220240083A920806329200084BD31889
:102100005D6803242040C000FF2214008440A543E2
:1021100089010A4082402A435A60E7E700E100E073
:1021200000ED00E01F2318401E3B8340014A13606E
:102130007047C04600E100E001380A4B98420FD8D2
:10214000094A50600948036A1B021B0AC02109069C
:102150000B43036200239360073313600020704732
:102160000120FCE7FFFFFF0010E000E000ED00E0D1
:1021700070B5C56B0124066CB4406C600468636084
:102180004368102B04D0036899600368DA6070BD5F
:1021900003689A600368D960F9E7000010B504008D
:1021A0000368064A9446634418001421FDF7ACFF07
:1021B00080002064024BE36310BDC046F8FFFDBF02
:1021C0000000024070B5041E24D02125022343558F
:1021D00001680B68104A1A40436880680343E0684E
:1021E00003432069034360690343A0690343E06933
:1021F000034313430B602000FFF7D0FF0023A362CB
:10220000E36223636363A363012262551F32A35415
:10221000002070BD0120FCE70FC0FFFF70B5040077
:102220002020205C012832D02020012525540130B7
:10223000205C012804D020230022E254022070BD3B
:102240002030013525540020A06325682868012628
:10225000B04328602000FFF78BFFE36A002B0BD010
:10226000226813680E210B43136022681368012152
:102270000B4313600020E2E7226813680A210B4336
:1022800013602268136806398B431360EDE7022060
:10229000D5E710B52123C35C022B03D0042383634D
:1022A000012010BD026813680E218B431360016882
:1022B0000A6801239A430A60C26B1900046CA140AA
:1022C0005160212283541F330022C254436B002BE0
:1022D00002D098470020E4E70020E2E770B5C36B26
:1022E0001A6804682568016C04238B401A4212D0D6
:1022F0006B0710D523689B0603D4236804229343FD
:102300002360C26B0423016C8B405360C36A002BB3
:1023100000D0984770BD02238B401A4218D0AB07FB
:1023200016D523689B0606D423680A2293432360AC
:102330002123093AC254C26B0223016C8B405360C3
:1023400020230022C254836A002BE3D09847E1E7A0
:1023500008238B401A42DDD02B07DBD523680E22E1
:1023600093432360C26B01231900046CA1405160A8
:102370008363212283541F330022C254036B002B3A
:10238000C8D09847C6E70000F0B5C64600B582B091
:10239000002338E0032600E00026AE4035003D4330
:1023A0000234A400554EA551554C25684246D443ED
:1023B0002E0026404A68D20302D5424615432E001D
:1023C0004F4D2E606D682E0026404A68920302D55C
:1023D000424615432E004A4D6E60AD682E002640E1
:1023E0004A68D20202D5424615432E00444DAE60E3
:1023F000ED682C404A68920202D542462A431400F6
:102400003F4AD46001330A681400DC4071D00125D2
:102410009D402A409046F5D04C68022C01D0122CE9
:102420000ED1DC080834A400275807261E40B60049
:102430000F22B24097430A69B24016003E4326502D
:1024400002685F0003242600BE40F64332409446F3
:102450004A681440BC406246144304604C68621EE3
:10246000012A03D9112C01D0122C10D184683440D8
:10247000A446CC68BC406246144384604468AC43C4
:102480004A681209012515409D4025434560C468EE
:1024900026408C68BC403443C4604A68D200B1D541
:1024A000184DAE6901242643AE61AD692C400194FC
:1024B000019C9C08A51CAD00104EAF5903251D4082
:1024C000AD000F26AE40B7439026F605B04200D1CE
:1024D00062E70D4EB04208D00C4EB04207D00C4E11
:1024E000B04200D156E7052657E7012655E70226F8
:1024F00053E702B004BC9046F0BDC0460000014066
:102500000004014000100240000400480008004898
:10251000000C0048002A01D1816270478161FCE70C
:1025200043695940416170477047000010B5054B41
:102530005B69184200D110BD024B5861FFF7F4FFF0
:10254000F9E7C0460004014003689A69920701D583
:1025500000229A6203689A69D20703D49A6901211A
:102560000A439A617047000030B51D000468606836
:10257000064B18408905890D12040B0013432B43A9
:10258000039A13430343636030BDC046009800FCC8
:1025900030B5CB0709D54123C35C28221340282B33
:1025A00001D0F22302E01A3300E000238A0709D5A4
:1025B00044241C434122825C28252A40282A15D025
:1025C000F42213434A0701D5B822134311220A40CB
:1025D000112A0DD01222114012290CD012290DD02F
:1025E00001680A689A430A60002030BD2300E9E7C9
:1025F0007F321343EEE70E321343EFE740221343DB
:10260000EEE7000070B504000E00150003689B693A
:10261000DB0616D523689A69920614D4731CF9D088
:10262000002E04D0FFF736FD401BB042F2D9412303
:102630002022E25400232232A354023AA35403205E
:1026400018E0002016E01022DA6123682025DD6101
:102650002000FFF779FF2268536807490B40536059
:10266000042363643D33E55400234222A354023A19
:10267000A354012070BDC04600E800FE70B5040000
:102680000D00160023689B699B071CD432002900AB
:102690002000FFF7B7FF002817D16B1CF2D0002DE8
:1026A00004D0FFF7F7FC801BA842EBD9636C202213
:1026B000134363644123E25400232232A354023AB9
:1026C000A354032000E0002070BD0120FCE7F8B512
:1026D00006000C0017001D0033689B6923401B1B7C
:1026E0005A425341BB4213D16B1CF5D0002D05D08B
:1026F000FFF7D0FC069BC01AA842EDD94123202247
:10270000F25400232232B354023AB354032000E0BF
:102710000020F8BD70B582B0040016001D008023B3
:10272000EAB28020800100905B042000FFF71CFFCC
:10273000079A06992000FFF7A1FF002805D0636CD7
:10274000042B26D1012002B070BD012D0ED12368CB
:10275000F6B29E62079B0093069B00228021200018
:10276000FFF7B5FF0028EED00320ECE72368320A1C
:102770009A62079A06992000FFF780FF002804D08C
:10278000636C042B07D10120DDE72368F6B29E625B
:10279000E0E70320D7E70320D5E770B582B0040057
:1027A00016001D00DAB280239B0100930023FFF77F
:1027B000DBFE079A06992000FFF760FF002805D08E
:1027C000636C042B26D1012002B070BD012D0ED107
:1027D0002368F6B29E62079B0093069B002240216D
:1027E0002000FFF774FF0028EED00320ECE72368F9
:1027F000320A9A62079A06992000FFF73FFF0028E5
:1028000004D0636C042B07D10120DDE72368F6B206
:102810009E62E0E70320D7E70320D5E770B5050007
:102820000C0016002B689B699B061AD4320021000D
:102830002800FFF7E7FE002815D1002C04D0FFF791
:1028400029FC801BA042EDD96B6C202213436B64E2
:102850004123EA5400232232AB54023AAB54032002
:1028600070BD0020FCE70120FAE7000010B5041E4F
:1028700059D04123C35C002B43D041232422E2548E
:102880002268136801218B4313602268274B61681B
:102890000B4013612268936825490B409360E368FD
:1028A000012B34D0226884231B02A1680B43936060
:1028B000E368022B32D0226851681E4B0B435360F1
:1028C0002268D3681A490B40D360236962691343B5
:1028D000A269120221681343CB602268E369216A6E
:1028E0000B4313602268136801210B43136000231C
:1028F000636441221F31A15423630132A354002099
:1029000010BD40330022C25402F0A0FAB5E722689D
:1029100080231B02A1680B439360C9E723688022D0
:1029200012015A60C7E70120EAE7C046FFFFFFF047
:10293000FF7FFFFF00800002F0B587B00500039124
:10294000049205930CAB10CB1E884123C35C202B53
:1029500000D0C1E0002C00D1C1E0002E00D1C0E0C9
:102960002033C35C012B00D1BDE040230122C254BF
:10297000FFF790FB07008021009019230122090234
:102980002800FFF7A4FE002800D0AEE0412321225A
:10299000EA5401331F32EA5400236B646C626E8583
:1029A0006B6301970E980090059B049A0399280089
:1029B000FFF7B0FE00280CD06B6C042B04D13C3325
:1029C0000022EA54012088E040230022EA54032038
:1029D00083E06B8D9BB2FF2B0BD9FF232B857F3BB5
:1029E000002200925B04FF3203992800FFF7BCFD30
:1029F00022E06A8D92B22A858023D2B20021009112
:102A00009B0403992800FFF7AFFD15E06B6C042BC6
:102A100000D06CE0012060E06A8D92B22A858023AC
:102A2000D2B2002100919B0403992800FFF79CFD7E
:102A30006B8D9BB2002B33D03A000E992800FFF724
:102A40001DFE0028E2D16B6A5A1C6A622A681B7854
:102A500093626B8D013B9BB26B852B8D013B9BB2CF
:102A60002B85002BE4D16B8D9BB2002BE0D000971F
:102A70000E9B002280212800FFF729FE002838D174
:102A80006B8D9BB2FF2BC7D9FF232B857F3B002289
:102A900000925B04FF3203992800FFF765FDC7E74A
:102AA0003A000E992800FFF7B9FE002804D06B6C9D
:102AB000042B20D1012010E02B682022DA61296844
:102AC0004B680E4C23404B604123EA5400232232D2
:102AD000AB54023AAB5400E0022007B0F0BD012035
:102AE000FBE70120F9E70220F7E70320F5E70320E1
:102AF000F3E70320F1E70320EFE7C04600E800FE1C
:102B0000F0B587B004000391049205930CAB20CB81
:102B10001F884123C35C202B00D0BFE0002D00D1D3
:102B2000BFE0002F00D1BEE02033C35C012B00D1F9
:102B3000BBE040230122C254FFF7ACFA060080211B
:102B400000901923012209022000FFF7C0FD002890
:102B500000D0ACE041232222E25401331E32E25481
:102B60000023636465626785636301960E98009035
:102B7000059B049A03992000FFF70FFE00280CD054
:102B8000636C042B04D13C330022E254012086E024
:102B900040230022E254032081E0638D9BB2FF2B8F
:102BA0000CD9FF2323857F3B9022920100925B0486
:102BB000FF2203992000FFF7D7FC1DE0628D92B23F
:102BC00022858023D2B29021890100919B04039930
:102BD0002000FFF7C9FC0FE0628D92B222858023AE
:102BE000D2B2002100919B0403992000FFF7BCFCA6
:102BF000638D9BB2002B35D000960E9B00220421E2
:102C00002000FFF764FD002853D123685A6A636AE5
:102C1000591C61621A70238D013B9BB22385628D22
:102C2000013A92B26285002BE2D1638D9BB2002BF8
:102C3000DED000960E9B002280212000FFF747FD8A
:102C4000002838D1638D9BB2FF2BC5D9FF23238584
:102C50007F3B002200925B04FF3203992000FFF7C4
:102C600083FCC5E732000E992000FFF7D7FD00284E
:102C700004D0636C042B20D1012010E023682022B3
:102C8000DA6121684B680E4D2B404B604123E254C2
:102C900000232232A354023AA35400E0022007B0DA
:102CA000F0BD0120FBE70120F9E70220F7E7032050
:102CB000F5E70320F3E70320F1E70320EFE7C04641
:102CC00000E800FE10B5036899691A68436B002B91
:102CD00000D0984710BD7047704710B504004223DC
:102CE0000022C254013BC35C292B04D04123C35CA6
:102CF0002A2B0FD010BD18332832C254203B036357
:102D00000121FFF745FC40230022E2542000FFF799
:102D1000E2FFEFE717332822C2541F3B036302216F
:102D2000FFF736FC40230022E2542000FFF7D4FFD7
:102D3000E0E77047F8B504004123C35C2822134044
:102D4000282B06D003680822DA6140230022C254EF
:102D5000F8BD03689E69360C273A16409A69120C32
:102D6000FE273A4015009A689205920DD8680740F0
:102D7000E168022922D1D00945400431294210D10D
:102D8000A16C0131A164A16C0229E1D10021A164EF
:102D90000820D8614023E15431002000FFF7C9FF2B
:102DA000D6E704212000FFF7F3FB40230022E25482
:102DB0003A0031002000FFF7BCFFC9E704212000E2
:102DC000FFF7E6FB40230022E2542A0031002000F6
:102DD000FFF7AFFFBCE7704710B50400164BC362A6
:102DE0000023036341222020A0540132A3546363D3
:102DF0004B0712D523685A6A636A591C61621A70BC
:102E0000238D002B09D0013B2385638D013B9BB2B1
:102E10006385636C04221343636407212000FFF77A
:102E2000B7FB23681022DA6140230022E25420001D
:102E3000FFF7D1FF10BDC0460000FFFF704770478D
:102E400010B50400002342228354364AC2624385EF
:102E5000436C194341644123C35C282B07D04123B1
:102E6000C35C292B03D04123C35C2A2B1CD1032133
:102E70002000FFF78DFB41232822E2540023236327
:102E8000294B636323681A6852041BD41A6812041E
:102E90002BD44123E35C602B3AD040230022E25440
:102EA0002000FFF7CBFF10BD0721FFF771FB412387
:102EB000E35C602B02D041232022E25400232363F1
:102EC0006363DFE71A6819490A401A60A36B184A5E
:102ED0005A6340230022E254A06BFFF7DAF900287E
:102EE000E1D0A06B436B9847DDE71A6811490A40AF
:102EF0001A60E36B0E4A5A6340230022E254E06BEF
:102F0000FFF7C7F90028CED0E06B436B9847CAE7BC
:102F10001F3B2022E254013B0022E2542000FFF735
:102F20008EFFC0E70000FFFF51300008FFBFFFFF2A
:102F3000F1310008FF7FFFFF70B504000D0003684A
:102F40002022DA610368183ADA610721FFF720FBD3
:102F50002268516880231B020B4353602268536828
:102F600039490B4053602000FFF7EEFA22681368DE
:102F70005B0402D413681B0408D54123E35C212BB6
:102F80003AD0E36B1B685B689BB26385638D9BB231
:102F9000002B03D0636C04210B4363646B0711D5D2
:102FA000526A636A591C61621A70238D002B09D022
:102FB000013B2385638D013B9BB26385636C0422D7
:102FC00013436364002323634222A3546363636C4B
:102FD000002B16D1E26A1D4B9A421FD14123E35CBC
:102FE000222B26D041232022E254013B0022E2542E
:102FF0002000FFF770FE1BE0A36B1B685B689BB2B1
:10300000C3E7616C2000FFF71BFF4123E35C282B23
:103010000ED129002000FFF7DFFE09E0E362412323
:103020002022E254013B0022E2542000FFF7D3FEAD
:1030300070BD1F332022E254013B0022E2542000E5
:10304000FFF74AFEF4E7C04600E800FE0000FFFF7D
:1030500070B504000D0016004023C35C012B00D1A5
:1030600092E040230122C254CB063CD5F3063AD568
:10307000438D9BB2002B26D1C26A80239B049A42C7
:1030800002D0C26A9A4203D14123E35C282B0BD0C1
:10309000E26A3E4B9A4203D04123E35C292B08D0DD
:1030A00023681022DA6115E029002000FFF794FE62
:1030B00010E023681022DA612000FFF745FA2000B3
:1030C000FFF70BFE06E003681022DA61436C0C3A4E
:1030D00013434364AB0601D5B30650D4402300220A
:1030E000E254002070BD6B071ED573071CD5638D9D
:1030F0009BB2002B0CD023685A6A636A591C616228
:103100001A70238D013B2385638D013B9BB2638540
:10311000638D9BB2002BDDD1E26A1C4B9A42D9D061
:103120002000FFF7DAFDD5E72B0701D5330715D4CB
:10313000AB07CFD5B307CDD5638D9BB2002B12D093
:10314000636A5A1C626222681B789362638D013B3A
:103150009BB26385238D013B2385BBE729002000BB
:10316000FFF7E8FDB6E7E26A80235B049A4202D0EB
:10317000E36A002BAED12000FFF7AFFDAAE72900DC
:103180002000FFF7D9FEA9E70220ABE70000FFFF10
:1031900070B5026893691168DC0508D50C0606D580
:1031A000446C01252C43446480246400D4615A0596
:1031B00009D50A0607D5426C0824224342640268F6
:1031C0008024E400D4619B0509D50B0607D5436C28
:1031D0000222134343640368FF32FF32DA61436C17
:1031E0000B221A4200D170BD416CFFF729FEFAE7AD
:1031F00010B5406A0268516880231B020B4353607C
:10320000826B00235363C26B53634133C35C602BF7
:1032100002D0FFF713FE10BD1F3B2022C254FFF760
:103220000EFEF8E7F0B54123C35C202B20D12033FC
:10323000C35C012B1ED040240122025541252423CA
:1032400043550668336893433360066833680A4F12
:103250003B403360066833681943316001680B688E
:1032600013430B602023435500230355002000E047
:103270000220F0BD0220FCE7FFEFFFFFF0B5412385
:10328000C35C202B1ED12033C35C012B1CD04024F7
:103290000122025541252423435506683368934390
:1032A000336006683368094F3B40090219433160B7
:1032B00001680B6813430B6020234355002303551B
:1032C000002000E00220F0BD0220FCE7FFF0FFFF3D
:1032D00070B582B004000368DB072BD5B34B5A6886
:1032E0000C231340042B1DD0B04B5A680C23134001
:1032F000082B0ED06368012B41D0002B56D1AB4B6D
:103300001A68AB490A401A601A68AA490A401A604A
:103310003BE0A64B5B68C02252021340802252025F
:103320009342E7D1A14B1B689B0303D56368002B35
:1033300000D1F1E123689B0778D59C4B5B680C2298
:103340001A4262D0994B5A680C231340082B53D071
:10335000E368002B00D18BE0944A136801210B43F2
:103360001360FEF797FE0500904B1B689B0776D411
:10337000FEF790FE401B0228F6D90320CFE18B4ACE
:10338000116880235B020B4313606368002B25D018
:10339000FEF780FE0500854B1B689B03CAD4FEF731
:1033A00079FE401B6428F6D90320B8E1052B09D02B
:1033B0007E4B1A687E490A401A601A687D490A40A5
:1033C0001A60E2E7794B19688022D2020A431A6038
:1033D0001968802252020A431A60D6E7FEF75AFEA5
:1033E0000500724B1B689B03A4D5FEF753FE401BE0
:1033F0006428F6D9032092E16C4B5B68C02252022C
:103400001340802212029342A2D1684B1B689B0793
:1034100004D5E368012B01D0012080E163490B68EA
:10342000F82293432269D20013430B6023681B07E1
:1034300044D5E369002B2ED05C4A536A01210B432B
:103440005362FEF727FE0500584B5B6A9B0735D495
:10345000FEF720FE401B0228F6D903205FE1534906
:103460000B68F82293432269D20013430B60DDE717
:103470004E4A136801218B431360FEF70BFE0500D3
:103480004A4B1B689B07D1D5FEF704FE401B022860
:10349000F6D9032043E1454A536A01218B43536225
:1034A000FEF7F8FD0500414B5B6A9B0706D5FEF76A
:1034B000F1FD401B0228F6D9032030E123685B07A9
:1034C00000D47FE0394BDB69DB001DD4374AD1697A
:1034D000802040050143D161D36903400193019BE2
:1034E0000125354B1B68DB0510D5A368012B21D0C6
:1034F000002B36D12D4B1A6A01218A431A621A6AAF
:1035000003318A431A621AE00025EAE72A4A116861
:1035100080235B000B431360FEF7BCFD0600264BC7
:103520001B68DB05E1D4FEF7B5FD801B6428F6D9E6
:103530000320F4E01D4A136A01210B431362A368C0
:10354000002B24D0FEF7A6FD0600184B1B6A9B0734
:1035500036D4FEF79FFD801B184B9842F5D9032007
:10356000DDE0052B09D0114B1A6A01218A431A624A
:103570001A6A03318A431A62E1E70C4B1A6A042182
:103580000A431A621A6A03390A431A62D7E7FEF736
:1035900081FD0600054B1B6A9B0711D5FEF77AFDDE
:1035A000801B064B9842F5D90320B8E0001002407A
:1035B000FFFFFEFFFFFFFBFF0070004088130000CD
:1035C000012D33D02368DB0610D56369012B33D07E
:1035D000053351D1544A536B04218B435363536BCE
:1035E000F4318B43A169C9000B435363236A002B59
:1035F00000D193E04C4A51680C220A40082A00D1BD
:103600008FE0022B4FD0484A136848490B401360A3
:10361000FEF740FD0400444B1B689B017AD5FEF782
:1036200039FD001B0228F6D9032078E03E4AD36911
:103630003F490B40D361C5E73B4B5A6B04210A431A
:103640005A635A6B03390A435A63FEF723FD050098
:10365000354B5B6B9B0706D4FEF71CFD401B022815
:10366000F6D903205BE030494B6BF8229343A26903
:10367000D20013434B63B9E72B4B5A6B04210A4327
:103680005A635A6B03398A435A63FEF703FD0500F8
:10369000254B5B6B9B07A9D5FEF7FCFC401B022862
:1036A000F6D903203BE0204A136820490B40136001
:1036B000FEF7F0FC05001C4B1B689B0106D5FEF7CE
:1036C000E9FC401B0228F6D9032028E0164BDA6AF1
:1036D0000F218A43E16A0A43DA625A6815490A40AF
:1036E000A16A606A01430A435A6019688022520441
:1036F0000A431A60FEF7CEFC04000B4B1B689B01CB
:1037000006D4FEF7C7FC001B0228F6D9032006E00A
:10371000002004E0002002E0012000E0002002B0D0
:1037200070BD0120FBE7C04600100240FFFFFFFE16
:10373000FFFFFFEFFF7FC2FF30B589B004AA184B2F
:10374000180032C832C2110002680A606A4610339B
:1037500013CB13C21B681360124B5B680C221A4018
:10376000082A1BD1990C0732114004A8445C0D496A
:10377000C96A0A406946895CC0225202134080220D
:103780005202934205D00848FCF7BEFC604309B0E2
:1037900030BD0548FCF7B8FC6043F8E70248F6E79F
:1037A000605F00080010024000127A0070B505004A
:1037B0000C004D4B1A68012313408B420BD24A492F
:1037C0000B680122934323430B600B681A40A2420B
:1037D00001D0012070BD2B689B0706D5434A536872
:1037E000F0218B43A9680B4353602B68DB074BD553
:1037F0006B68012B20D0022B24D03C4A1268920720
:103800006FD53A494A680320824313434B60FEF761
:1038100041FC06006B68012B1AD0022B26D0334BDB
:103820005B680C221A422FD0FEF734FC801B304B11
:103830009842F4D90320CDE72C4A12689203E0D4D1
:103840000120C7E7294A12689201DAD40120C1E7B2
:10385000264B5A680C231340042B15D0FEF71AFC94
:10386000801B234B9842F3D90320B3E71F4B5A68C0
:103870000C231340082B07D0FEF70CFC801B1C4BBD
:103880009842F3D90320A5E7174B1A680123134088
:10389000A3420BD914490B680122934323430B60C5
:1038A0000B681A40A24201D0012093E72B685B0706
:1038B00006D50E4A53680F490B40E9680B43536025
:1038C000FFF73AFF094B5A6812090F2313400A4ABF
:1038D000D35CD840094B18600020FEF7B1FB0020F4
:1038E00078E7012076E7C046002002400010024041
:1038F00088130000FFF8FFFF805F0008AC02002083
:10390000014B18687047C046AC02002010B5FFF7A5
:10391000F7FF044B5A68120A07231340024AD35C8C
:10392000D84010BD00100240905F000870B582B012
:1039300004000368DB0335D5414BDB69DB0052D45F
:103940003F4AD169802040050143D161D3690340DA
:103950000193019B01253B4B1B68DB0545D5384B8B
:103960001B6AC0229200134013D061680A409A4239
:103970000FD0334B186A344A02401E6A8021490234
:1039800031431962196A314E314019621A62C30714
:103990003FD42B4A136A2C490B4061680B431362D6
:1039A000012D45D02368DB0706D5254A136B03217B
:1039B0008B43A1680B43136323689B0606D5204AFB
:1039C000136B10218B43E1680B43136323689B0344
:1039D00033D51B4A136B80218B4321690B4313633F
:1039E000002002B070BD0025B5E7164A116880239B
:1039F0005B000B431360FEF74DFB0600114B1B6889
:103A0000DB05ACD4FEF746FB801B6428F6D9032007
:103A1000E7E7FEF73FFB0600094B1B6A9B07B8D49C
:103A2000FEF738FB801B0A4B9842F5D90320D8E7F4
:103A3000D36908490B40D361B4E70020D1E7C04601
:103A40000010024000700040FFFCFFFFFFFFFEFF80
:103A500088130000FFFFFFEF0368DA6801210A43C3
:103A6000DA60026813680B431360002070477047E8
:103A700070477047704710B5040003681A699207D1
:103A80000FD5DA6892070CD5032252421A6101233E
:103A9000037703689B699B0763D0FFF7E9FF002367
:103AA000237723681A69520712D5DA6852070FD5AF
:103AB000052252421A610223237723689A69C023A0
:103AC0009B001A4253D02000FFF7D2FF0023237738
:103AD00023681A69120710D5DA6812070DD5092272
:103AE00052421A61042323772368DB699B0745D080
:103AF0002000FFF7BDFF0023237723681A69D20651
:103B000012D5DA68D2060FD5112252421A61082363
:103B100023772368DA69C0239B001A4235D020003E
:103B2000FFF7A6FF0023237723681A69D20702D57F
:103B3000DA68D20730D423681A69120602D5DA6827
:103B4000120630D423681A69520602D5DA68520682
:103B500030D423681A69920602D5DA68920630D406
:103B600010BDFFF784FF2000FFF783FF97E72000D9
:103B7000FFF77DFF2000FFF77CFFA7E72000FFF79E
:103B800076FF2000FFF775FFB5E72000FFF76FFF16
:103B90002000FFF76EFFC5E7022252421A612000A3
:103BA00001F0F2FAC7E7812252421A61200000F0C8
:103BB00074F8C7E7412252421A612000FFF75AFF0A
:103BC000C7E7212252421A61200000F065F8C7E7DA
:103BD00003681D4A904202D01C4A904203D17022D1
:103BE00093434A681343184A90420ED0174A9042B2
:103BF0000BD0174A904208D0164A904205D0164A78
:103C0000904202D0154A904203D1154A1340CA6827
:103C10001343802293434A69134303608B68C36252
:103C20000B688362084B984208D00A4B984205D033
:103C3000094B984202D0094B984201D10B690363AA
:103C4000012343617047C046002C0140000400403E
:103C50000020004000400140004401400048014075
:103C6000FFFCFFFF70B5041E14D03D23C35C002B86
:103C70000AD03D2502236355211D2068FFF7A8FFC8
:103C800001236355002070BD3C330022C25401F073
:103C900049F9EEE70120F6E77047704702681368BC
:103CA000C0218B43136069232022C2547047000057
:103CB0000268136806490B40136002689368233159
:103CC000FF318B4393606A232022C2547047C04661
:103CD000DFFEFFFF70B504006920205C20283ED184
:103CE00000293ED0002A3ED080235B01A068984284
:103CF0002ED06823E35C012B37D068260123A3551F
:103D0000E1644F33E2520233E2520025E566173395
:103D10002121E154236E16499962236E1549D96217
:103D2000236E15491963236E5D63216828311300E2
:103D30000A00E16C206EFEF771FA236840221A62D5
:103D4000A5552268936880210B439360002007E00B
:103D50002369002BCDD1CB07CBD5012000E0022079
:103D600070BD0120FCE70120FAE70220F8E7C04619
:103D70007D3D0008AF3D0008BB3D000810B5436A1B
:103D80000268126892060DD45222002199521968D5
:103D90008A68802082438A601A68136840210B4336
:103DA000136010BD180001F0FFF9FAE7704710B575
:103DB000406AFFF7FBFF10BD704710B5446A6923E6
:103DC000E35C212B0BD06A23E35C222B12D0E36E41
:103DD00010221343E3662000FFF7EEFF10BD2368B7
:103DE0009B681B06EFD552230022E2522000FFF70A
:103DF00055FFE8E723689B685B06E8D55A23002255
:103E0000E2522000FFF754FFE1E710B5406A0023BB
:103E10005A228352083A8352FFF7CEFF10BD0000AA
:103E200070B5040083680269134342691343C26991
:103E3000134301680A686548024013430B60226817
:103E4000536863490B40E1680B435360A269236ADE
:103E50001A4321688B685F48034013438B602568D1
:103E60005D4B9D4226D05D4B9D423BD05C4B9D42BD
:103E70003AD05C4B9D4231D0102380221202E1697E
:103E8000914233D0022B00D184E000D872E0042BA1
:103E900000D18BE0082B00D096E0616848088023B1
:103EA0001B029C466044FCF72FF90004000CE860FC
:103EB000002044E04C4B1A6B03231340012B09D024
:103EC000002B05D0022B07D0032B09D01023D4E7F9
:103ED0000023D2E70423D0E70823CEE70023CCE772
:103EE0000223CAE70023C8E70023C6E7022B27D036
:103EF0000FD9042B2FD0082B39D1636858088023A1
:103F00005B029C4660446168FCF7FEF883B20020C7
:103F10000CE0002B2BD1FFF7F9FC400063685B0835
:103F2000C0186168FCF7F0F883B200200F22190076
:103F300091435B10083A13400B432268D36070BD75
:103F400063685808294B9C4660446168FCF7DCF8BC
:103F500083B20020EAE7FFF7EFFB400063685B08ED
:103F6000C0186168FCF7D0F883B20020DEE70120BA
:103F70000023DBE7002B27D1FFF7C8FC63685B0851
:103F8000C0186168FCF7C0F823680004000CD86012
:103F90000020D4E761684808154B9C466044FCF754
:103FA000B3F80004000CE8600020C8E7FFF7C4FB8A
:103FB00063685B08C0186168FCF7A6F82368000412
:103FC000000CD8600020BAE70120B8E7F369FFEFE2
:103FD000FFCFFFFFFFF4FFFF003801400044004027
:103FE00000480040004C0040001002400024F40053
:103FF00000127A00436ADB0706D5026853682C4931
:104000000B40816A0B435360436A9B0706D50268E5
:10401000536828490B40C16A0B435360436A5B07EE
:1040200006D50268536824490B40016B0B4353606B
:10403000436A1B0706D50268536820490B40416B51
:104040000B435360436ADB0606D5026893681C493C
:104050000B40816B0B439360436A9B0606D5026855
:10406000936818490B40C16B0B439360436A5B062E
:104070000BD50268536814490B40016C0B43536025
:1040800080235B03026C9A420AD0436A1B0606D562
:10409000026853680D490B40816C0B4353607047B5
:1040A000026853680A490B40416C0B435360ECE7CC
:1040B000FFFFFDFFFFFFFEFFFFFFFBFFFF7FFFFF97
:1040C000FFEFFFFFFFDFFFFFFFFFEFFFFFFFF7FF48
:1040D000FFFF9FFF0023C366202269214254013164
:1040E00042544832835400207047000010B5041E2B
:1040F00030D06923C35C002B22D069232422E254F0
:104100002268136801218B4313602000FFF788FEAB
:10411000012814D0636A002B18D1226853680E4915
:104120000B4053602268936808218B439360226898
:10413000136807390B4313602000FFF7CBFF10BD56
:1041400068330022C25400F01BFFD6E72000FFF7BF
:1041500051FFE2E70120F2E7FFF7FFFFF0B5C646A7
:1041600000B506000C0017009846069D3368DB6911
:1041700023401B1B5A425341BB421ED16B1CF5D03E
:10418000002D05D0FDF786FF4346C01AA842EDD9A1
:10419000326813680B490B40136032689368A3318F
:1041A000FF318B43936020236922B3540132B3540F
:1041B00048330022F254032000E0002004BC904663
:1041C000F0BDC0465FFEFFFFF0B585B004000E00F5
:1041D00017001D006923C35C202B59D100295AD038
:1041E000002A5AD080235B0182689A4213D0682348
:1041F000E35C012B53D068230122E2540023E366E1
:1042000069332032E254FDF745FF03905023E75213
:104210000233E7520AE00369002BE8D1CB07E6D569
:10422000012036E033782268138501365223E35AA1
:104230009BB2002B1CD05222A35A013B9BB2A3522B
:104240000095039B002280212000FFF787FF0028B4
:1042500027D180235B01A2689A42E3D12369002B16
:10426000E0D13388DB05DB0D226813850236DDE7FC
:104270000095039B002240212000FFF76FFF0028DC
:1042800011D169232022E254013B0022E25400E0D4
:10429000022005B0F0BD0120FBE70120F9E7022074
:1042A000F7E70320F5E70320F3E76923C35C212B3D
:1042B0002FD13133C35A9BB2002B11D080235B0125
:1042C00082689A4218D0C36C5A1CC2641B78026878
:1042D00013855222835A013B9BB28352002019E07E
:1042E0000268136880218B431360026813684039A9
:1042F0000B43136000200DE00369002BE3D1C36C76
:104300001B88DB05DB0D02681385C36C0233C364B5
:10431000DFE70220704710B50268136840218B4325
:10432000136069232022C25400F03EFF002010BD1C
:1043300010B55C23C25A0E33C35C222B32D1036802
:104340009B8C9BB28021490184688C420ED0D2B2F2
:10435000416D4C1C446513400B705A22835A013B3B
:104360009BB28352002B0BD0002021E00169002971
:10437000EDD11340426D1380436D02334365ECE78A
:10438000026813680B490B4013600268936823317D
:10439000FF318B4393606A232022C25400F012FF46
:1043A000002005E00268936908210B439361022015
:1043B00010BDC046DFFEFFFF70B504000168CB6989
:1043C00008680F221A4003D19D0601D585065BD4EB
:1043D0008D68002A6ED001222A4003D190256D00FD
:1043E000284267D0DD0706D5C50504D501250D6235
:1043F000E16E2943E166990708D5002A06D02168B5
:1044000002250D62E16E02352943E166590708D5A0
:10441000002A06D0216804250D62E16E023D294381
:10442000E166190709D5810601D4002A05D0226862
:1044300008211162E26E0A43E266E26E002A41D070
:104440009B0601D5830623D4E36E1B0703D42368A0
:104450009B685B0628D52000FFF72AFC23689A6832
:1044600052061DD59A6840218A439A60636E002BDC
:1044700012D0194A5A63606EFDF70BFF002821D055
:10448000606E436B98471DE02000FFF751FF19E075
:104490002000FFF74DFFD7E72000FFF78DFC11E06C
:1044A0002000FFF789FC0DE02000FFF785FC0023CA
:1044B000E36607E01A0601D5020604D45B0601D5BF
:1044C000430604D470BD2000FFF7EFFEFAE720009A
:1044D000FFF721FFF6E7C0460B3E000810B50028A5
:1044E0000AD0012806D180218F3001224901C00560
:1044F000FEF710F8002010BD802190200022490115
:10450000C005FEF707F8F5E770B504001500416037
:10451000FFF7ECFD002D04D02268136880210B43C7
:104520001360002800D0012070BD0000F8B50D0018
:10453000662867D034D96C2800D195E0722800D065
:10454000C1E08021012209026048FDF7E3FF6420F9
:10455000FDF7A6FD5E4EAE277F005223F3555E2386
:10456000FF330122F25401339032FF32F252300015
:10457000FCF736FA040056213000FBF746FF0443EF
:1045800064B25623F35501213000FBF745FF044385
:1045900064B229003000FBF751FF204340B25FE0D6
:1045A000622800D08FE08021012289014748FDF771
:1045B000B1FF6420FDF774FD464EAE277F00522305
:1045C000F3555E23FF330122F25401339032FF3260
:1045D000F2523000FCF704FA040054213000FBF7DB
:1045E00014FF044364B25423F35501213000FBF758
:1045F00013FF044364B229003000FBF71FFF204380
:1046000040B22DE08021012289003348FDF782FF6E
:104610006420FDF745FD314EAE277F005223F35550
:104620005E23FF330122F25401339032FF32F25203
:104630003000FCF7D5F9040053213000FBF7E5FE0C
:10464000044364B25323F35501213000FBF7E4FE29
:10465000044364B229003000FBF7F0FE204340B26F
:10466000002800D00120F8BD80210122C90117488F
:10467000FDF750FF6420FDF713FD194EAE277F00B4
:104680005223F3555E23FF330122F254013390325B
:10469000FF32F2523000FCF7A3F90400552130003C
:1046A000FBF7B3FE044364B25523F35501213000F8
:1046B000FBF7B2FE044364B229003000FBF7BEFEF4
:1046C000204340B2CCE70020CDE7C04600080048B8
:1046D000D40400203406002000040048980700207D
:1046E0007003002010B588B00C00662810D008D9DF
:1046F0006C2819D072281CD101A90F48FCF758FA70
:104700000AE0622815D101A90C48FCF751FA03E030
:1047100001A90B48FCF74CFA01AB1B892380002848
:1047200000D0012008B010BD01A90648FCF740FAEE
:10473000F2E70020F0E7C046D40400203406002051
:10474000980700207003002010B50C48FCF744FBCC
:1047500004000B48FCF740FB044364B20948FCF733
:104760003BFB044364B20848FCF736FB044364B2E5
:10477000002C01D0012010BD0020FCE7980700208C
:104780003406002070030020D404002010B5002857
:1047900008D0012804D1012201210548FDF7BAFE05
:1047A000002010BD002201210148FDF7B3FEF7E70C
:1047B0000004004810B50200802109020148FDF7FD
:1047C000A9FE10BD0004004810B502008021890137
:1047D0000148FDF79FFE10BD0004004810B502001F
:1047E0008021C9010148FDF795FE10BD0004004875
:1047F00010B5802109020248FDF792FE10BDC046A7
:104800000004004810B5802189010248FDF788FEA8
:1048100010BDC0460004004810B58021C9010248FF
:10482000FDF77EFE10BDC046000400489021C9057A
:104830000A6952083F2313400969890140220A404E
:104840001343014A13607047D0040020124B1A78BA
:104850004023134058105040202101400B43581072
:104860005040102101400B43581050400821014096
:104870000B4358105040042101400B435810504046
:10488000022101400B4359104A4001210A401343C1
:10489000024A13707047C046D004002094070020DD
:1048A00010B58021002289000B48FDF733FE8021DE
:1048B0000A4C002289012000FDF72CFE80210022F5
:1048C000C9012000FDF726FE8021002209022000F8
:1048D000FDF720FE002010BD00040048000800483D
:1048E00010B52B4C0023237000F06CFD00F0A4FDEC
:1048F00000F06EFD2748FFF7AFF8E12100224902E2
:104900002548FFF701FE0020FFF740FFFFF7C8FF33
:104910000120FFF7E3FD0123237000F081FD03E098
:1049200000F08AFD00F05AFD1C4B1B78002BF7D0DD
:1049300000F07CFD00F04CFD154B00221A7000F0D9
:1049400041FD00F079FD00F043FD154C210066208B
:10495000FFF7ECFD21006220FFF7E8FD21006C204D
:10496000FFF7E4FD21007220FFF7E0FD0120FFF7D3
:104970000DFFFFF7E9FE00F033FC00F05BFC00F0F8
:104980007FFC00F0E3FC00F01DFD00F04FFD10BDCA
:104990004E030020440C0020940B0020380300201C
:1049A000F055000010B500F02DFC00F04FFC00F0B9
:1049B00073FC002000F0D0FC00F03EFD00F00EFD86
:1049C000F1E70000F0B58BB01422002105A800F03B
:1049D00022FE464B596980200003014359615A6900
:1049E00002400192019A59698020C0030143596134
:1049F0005A6902400292029A59698020800201435A
:104A000059615A6902400392039A5A698021C90286
:104A10000A435A615B690B400493049BE02424021F
:104A2000002221003248FDF775FD0022314932484D
:104A3000FDF770FDC0256D019026F60500222900C6
:104A40003000FDF767FD05940127069700240794C1
:104A5000089405A92648FDF797FC7F230593069443
:104A6000079405A93000FDF78FFC244B05930697AA
:104A70000794089405A92048FDF786FC80239B0134
:104A80000593069707940323089305A91A48FDF791
:104A90007BFC059506970794089405A93000FDF75F
:104AA00073FC80231B020593154F0697079405A9F5
:104AB0003000FDF769FC382305930697079405A994
:104AC0000D48FDF761FC002200210620FDF7FAFAEF
:104AD0000620FDF727FB002200210720FDF7F2FA50
:104AE0000720FDF71FFB0BB0F0BDC04600100240D1
:104AF0000008004801F200000004004801D2000054
:104B00000000111000B583B0094A5169012319430F
:104B10005161526913400193019B002200210A2038
:104B2000FDF7D0FA0A20FDF7FDFA03B000BDC0463C
:104B300000100240FEE7000010B51348134B03605D
:104B400083239B004360002383600122C2600361D2
:104B500043618361C3610362FDF788FE00280DD1C4
:104B6000802149010848FEF75DFB002808D100219B
:104B70000548FEF783FB002804D110BDFFF7DAFFDC
:104B8000FFF7D8FFFFF7D6FFF808002000540040D9
:104B900010B51248124B0360124B43600023836030
:104BA0000122C260036143618361C3610362FDF757
:104BB0005DFE00280CD100210848FEF733FB0028D9
:104BC00008D100210548FEF759FB002804D110BD8B
:104BD000FFF7B0FFFFF7AEFFFFF7ACFF440900207F
:104BE000005800401A09102010B50B480B4B036009
:104BF000E1235B02436000238360C36003610C22F6
:104C000042618361C36103624362FFF76FFA002868
:104C100000D110BDFFF78EFF940B0020003801403B
:104C200010B50948094B03603023436000238360BB
:104C3000FA229200C2608361FFF714F8002800D1C5
:104C400010BDFFF777FFC046040C002000100040A5
:104C500010B50848084B0360084B4360002383608D
:104C6000074AC2608361FEF7FDFF002800D110BD36
:104C7000FFF760FF440C00200014004080BB0000E0
:104C8000E8FD000000B597B0282200210CA800F034
:104C9000C2FC1022002106A800F0BDFC1422002155
:104CA00001A800F0B8FC03230A93023B0B930D9379
:104CB0000F330E930E3B129380235B0213938023DA
:104CC0005B0314930AA8FEF703FB002818D10723FF
:104CD0000693053B0793002308930993012106A837
:104CE000FEF764FD00280DD12123019300230393D7
:104CF000049301A8FEF71AFE002805D117B000BDE5
:104D0000FFF718FFFFF716FFFFF714FF70B5FDF769
:104D1000A9F9FFF7B7FFFFF755FEFFF7F3FEFFF71F
:104D20000BFFFFF735FFFFF75FFFFFF779FFFFF797
:104D30008FFFFFF7D5FDFFF735FE0EE00120FFF7EF
:104D40004DFD012000F046F80F4B188900F04CF89B
:104D500000F03AF81E20FDF7A3F90C4D2B68002255
:104D60005A6209490A48FBF723FF0A4C20702B6856
:104D7000586A00F039F80023E356002BDED10120F9
:104D8000FFF722FDDDE7C046D4090020440C0020D7
:104D9000340A00203A03002000B583B06B46D91DC9
:104DA0000870FF2301220248FFF70EFA03B000BD8E
:104DB000940B002010B50D20FFF7EEFF10BD10B5CD
:104DC0000A20FFF7E9FF10BD10B5FFF7F3FFFFF76B
:104DD000F6FF10BD10B5040003E02020FFF7DCFF54
:104DE000013C002CF9D110BD30B583B002000A4956
:104DF000684600F049FE6846FBF7FCFAC5B200249D
:104E000005E06B46185DFFF7C7FF0134E4B2AC4222
:104E1000F7D303B030BDC0469C5F000882B00A4B98
:104E2000996901221143996199690A400092009A97
:104E3000DA69802149050A43DA61DB690B40019395
:104E4000019B02B07047C0460010024010B58AB006
:104E500004001422002105A800F0DDFB23682D4A80
:104E6000934204D02C4A934229D00AB010BD2B4C57
:104E700062698021C9020A43626163690B40019340
:104E8000019BC0230593AE3B06930F3B0893023B67
:104E9000099305A92248FDF777FAE2698021890381
:104EA0000A43E261E3690B400293029B0022002166
:104EB0001720FDF707F91720FDF734F9D5E7174C50
:104EC00062698021C9020A43626163690B400393EE
:104ED000039BC0231B01059312230693113B0793E9
:104EE00003220892099305A90D48FDF74DFAE269DE
:104EF0008021C9030A43E261E3690B400493049BE8
:104F0000002200211820FDF7DDF81820FDF70AF92E
:104F1000ABE7C0460054004000580040001002407B
:104F20000004004800B583B00368124A934204D0DD
:104F3000114A934213D003B000BD104AD169102327
:104F40001943D161D26913400093009B00220021D4
:104F50001120FDF7B7F81120FDF7E4F8EBE7074A59
:104F6000D16920231943D161D26913400193019B78
:104F7000E1E7C0460010004000140040001002406D
:104F800010B588B004001422002103A800F043FBF0
:104F9000304B22689A4201D008B010BD2E4B99695F
:104FA0008020C001014399619A6902400192019AEF
:104FB0005A69802189020A435A615B690B40029356
:104FC000029BC023DB000393022304930133069367
:104FD000023B0793902003A9C005FDF7D5F91F48B0
:104FE0001F4B036010234360002383608022C26054
:104FF000036143618361C0239B01C361FDF7E2F854
:10500000002820D1154B23665C621648164B0360BE
:105010000023436083608022C26003614361836137
:1050200080239B01C361FDF7CDF800280ED10D4B05
:1050300063665C62002200211B20FDF743F81B2001
:10504000FDF770F8A8E7FFF775FDDBE7FFF772FDE6
:10505000EDE7C046003801400010024090090020F2
:105060001C000240F0090020300002407047FEE7BB
:105070007047704710B5FDF705F810BD10B5082052
:10508000FDF754FA10BD10B51020FDF74FFA20209F
:10509000FDF74CFA80200002FDF748FA10BD000031
:1050A00010B50348FDF71AF90248FDF717F910BDCE
:1050B00090090020F009002010B50248FEF7DBFC43
:1050C00010BDC046040C002010B5074B1B689A6940
:1050D000E023DB001A4203D10348FDF7F3FD10BDC6
:1050E0000148FEF755F8FAE7F808002010B5074B1D
:1050F0001B689A69E023DB001A4203D10348FDF7DD
:10510000E1FD10BD0148FEF743F8FAE7440900202D
:1051100010B50248FFF750F910BDC046940B0020AF
:10512000134B1A6801210A431A605A681148024059
:105130005A601A68104802401A601A680F48024004
:105140001A605A680E4802405A60DA6A0F20824399
:10515000DA621A6B0B4802401A631A6B8020024312
:105160001A635A6B8A435A6300229A607047C0469A
:10517000001002400CB8FF08FFFFF6FEFFFFFBFF28
:10518000FFFFC0FF6CFEFFFF0268054B1B689A42E1
:1051900000D07047034A136801331360F9E7C04633
:1051A000040C0020400300200268044B1B689A4254
:1051B00000D07047024B01221A71FAE7940B0020CD
:1051C000400300200268044B1B689A4200D07047DD
:1051D000024B01225A71FAE7940B00204003002091
:1051E000014B01229A71704740030020014B0022BD
:1051F0009A71704740030020014B0122DA71704719
:105200004003002010B5094B9B79002B00D110BD45
:10521000FFF70CFBFFF71AFB054B1B78002BF6D1B1
:10522000FFF7E4FFFFF7E8FFF1E7C0464003002087
:1052300094070020014B0022DA71704740030020E0
:10524000014B01221A7270474003002010B50A4B2F
:10525000DB79002B00D110BDFFF7E8FAFFF7F6FA73
:10526000054B5A7A054B1B789A42F4D0024A537286
:10527000FFF7E6FFEFE7C046400300209407002059
:10528000014B00221A72704740030020014B01229B
:105290009A72704740030020F0B583B0284B1B7A08
:1052A000002B01D103B0F0BDFFF7EAFF6B469F1D55
:1052B00039006620FFF716FA214CE37A1843E072B2
:1052C00001AE31006C20FFF70DFAE37A1843E0726B
:1052D0006B469D1C29006220FFF704FAE37A18430D
:1052E000E07269467220FFF7FDF9E37A1843E07235
:1052F000388814490B88040A134AD4545C1C10558E
:1053000030883F34060A16550134105528883F343A
:10531000050A155501341055684600883F34050AC2
:1053200015550134105502339BB20B80202BB9D197
:1053300000220A80FFF77EFFFFF7A8FFB2E7C04612
:1053400040030020B0020020880C0020014B002206
:105350009A7270474003002010B50400164B9B7AE8
:10536000002B00D110BDFFF7F1FF002C21D100224E
:105370001249AA230B70553B4B70AD33EC20C85437
:105380000423FF33CA54822252000D48FEF7A2FCC8
:105390000028E7D0084B0122DA72E3E70749C95C2D
:1053A0008A18D2B201339BB20221FF318B42F5D968
:1053B000DEE702230022F7E740030020880C0020EC
:1053C000940B0020014B01221A7370474003002008
:1053D000014B00221A737047400300200D4B5B7B8A
:1053E000002B0AD00B4B5B79002B06D0094B002217
:1053F0005A71094B5B780A2B00D07047064B9B789B
:105400000D2BFAD1044B1B78732BF6D1034B0132D1
:105410001A70F2E740030020840C002038030020BB
:10542000014B01225A73704740030020014B0022B8
:105430005A7370474003002010B5484B1B7B002B6C
:1054400058D0474B1B68596A464A5268914251D915
:1054500000225A62414BDB7A002B27D03F4B0532AA
:105460009A733E4B9B7B002B38D0012B43D0022BF1
:105470004ED0032B58D0042B63D0052B3AD1394B97
:10548000FA2252005A60FFF7C7F90020FFF792F99D
:105490000020FFF799F9FFF7A9FEFFF7CBFEFFF712
:1054A000EFFEFFF753FFFFF7C1FF23E02B4BDB7944
:1054B000002B03D0294B02229A73D2E7274B9B7A09
:1054C000002B03D0254B03229A73CAE7234B1B7989
:1054D000002BC6D0214B04229A73C2E7214B002235
:1054E0005A600120FFF766F90120FFF76DF90120EE
:1054F000FFF774F910BD1B4BFA22D2005A60FFF778
:1055000077F90020FFF760F90020FFF767F9F1E76E
:10551000144B64225A60FFF775F90020FFF74AF92F
:105520000020FFF75BF9E5E70E4B00225A600120EF
:10553000FFF740F90120FFF747F90020FFF74EF988
:10554000D8E7084B00225A600120FFF733F900200A
:10555000FFF73AF90120FFF741F9CBE740030020BC
:10556000440C0020B00200200D488546002103E0D5
:105570000C4B5B58435004310B480C4B42189A4279
:10558000F6D30B4A02E0002313600432094B9A421F
:10559000F9D3FFF7C5FD00F011F8FFF7B7FBFEE701
:1055A000004000203C600008000000201C03002098
:1055B0001C030020900D0020FEE7000070B50026BF
:1055C0000C4D0D4C641BA410A64209D1002600F01E
:1055D00037FC0A4D0A4C641BA410A64205D170BDCD
:1055E000B300EB5898470136EEE7B300EB58984705
:1055F0000136F2E7346000083460000834600008C7
:1056000038600008002310B59A4200D110BDCC5C70
:10561000C4540133F8E703001218934200D17047D5
:1056200019700133F9E7000070B50500002910D0AA
:105630000C1F2368002B00DAE418280000F062FA3F
:105640001D4A1368002B05D163601460280000F028
:105650005AFA70BDA34209D9216860188342F3D178
:1056600018685B6841182160EEE713005A68002A49
:1056700001D0A242F9D919685818A0420BD120686C
:105680000918581819608242E0D110685268411810
:1056900019605A60DAE7A04202D90C232B60D5E7E3
:1056A00021686018824203D1106852684118216055
:1056B00062605C60CAE7C04660030020032370B5E7
:1056C000CD1C9D43083506000C2D1ED20C25A94289
:1056D0001DD8300000F016FA254A14682100002970
:1056E00019D1244C2368002B03D1300000F0BAF903
:1056F00020602900300000F0B5F9431C2BD10C23A9
:105700003000336000F0FFF903E0002DDFDA0C23F6
:105710003360002070BD0B685B1B19D40B2B03D9C1
:105720000B60CC18256003E04B688C420DD11360F0
:10573000300000F0E8F9200007220B30231D9043D1
:10574000C31AE7D05A42E250E4E763600C00EFE787
:105750000C004968C3E70323C41C9C43A042E1D06A
:10576000211A300000F07EF9431CDBD1C7E7C046A8
:105770006003002064030020F7B5150001938A68D8
:105780000B6900900C00934200DA130022002B609A
:1057900043321278002A01D001332B6023689B0624
:1057A00002D52B6802332B60062723681F4027D0C1
:1057B000230043331B785A1E93412268920630D44B
:1057C0002200019943320098089EB047431C25D01F
:1057D000062320682A68E16803400025042B03D1D2
:1057E0008D1AEB43DB171D40A3682269934201DD4C
:1057F0009B1AED180027BD4220D1002010E0013790
:10580000E3682A689B1ABB42D2DD220001231932C9
:1058100001990098089EB047431CF0D101204042F6
:10582000FEBD3020E1184331087021005A1C45317B
:105830000978A218433202331170C1E72200012314
:105840001A3201990098089EB047431CE6D00137F0
:10585000D1E70000F0B589B004920A004332059305
:10586000039002920A7E0C000E9B6E2A00D186E005
:105870001FD8632A33D008D8002A00D18CE0582AD8
:105880004DD0250042352A7030E0642A01D0692AC3
:10589000F7D1196825680A1D280629D508681A60F5
:1058A000002803DA2D23029A404213706B4E0A2718
:1058B0004FE0732A74D008D86F2A1FD0702AE0D125
:1058C000202209680A43226003E0752A16D0782A4C
:1058D000D7D12200782145321170614E22E0250097
:1058E0001A684235111D196013682B70012365E099
:1058F00008681A606906D3D500B2D1E7196825682F
:10590000081D186008682E0605D5544E08276F2A12
:105910001BD00A2719E06D06F7D580B2F5E74531AF
:105920004E4E0A7018682268011D0068196015063D
:1059300021D5D30702D520231A432260102700283F
:1059400003D1202322689A4322602300002243339C
:105950001A706368A360002B58DB0422216891430E
:105960002160002854D1029D002B5AD025003378A5
:1059700042352B7055E05506DBD580B2D9E71A6861
:105980000D68101D4969186013682E0601D519604D
:1059900002E06D06FBD519800023029D23614FE0D4
:1059A0001A68111D1960156800216268280000F04E
:1059B0008BF8002801D0401B6060636823610023DE
:1059C000029A13703CE023692A0004990398059D0C
:1059D000A847431C3ED023689B0715D4079BE0686B
:1059E000984239DA180037E022000123193204996D
:1059F0000398059EB047431C2CD00135E368079AF5
:105A00009B1AAB42F0DCE9E70025F7E70028ADD0B0
:105A1000029D3900FAF7FEFB735C013D2B700028F4
:105A2000F7D1082F09D12368DB0706D563682269FF
:105A3000934202DC3023013D2B70029B5B1B2361F0
:105A4000059B07AA00932100049B0398FFF794FE8F
:105A5000431CB8D10120404209B0F0BD00600008ED
:105A600011600008002370B5064C05000800236093
:105A700000F0D8F9431C03D12368002B00D02B6021
:105A800070BDC0468C0D00200EB400B50B499CB013
:105A90001DAB02900690079104910948094904CB77
:105AA0000591006802A9019300F0B6F80023029A5C
:105AB00013701CB008BC03B01847C046FFFFFF7F3F
:105AC000B80200200802FFFFC9B28218904201D13B
:105AD0000020704703788B42FBD00130F6E710B509
